{
  "_format": "hh-sol-artifact-1",
  "contractName": "BasicMarketplace",
  "sourceName": "contracts/BasicMarketplace.sol",
  "abi": [
    {
      "inputs": [],
      "stateMutability": "nonpayable",
      "type": "constructor"
    },
    {
      "anonymous": false,
      "inputs": [
        {
          "indexed": true,
          "internalType": "uint256",
          "name": "_productId",
          "type": "uint256"
        }
      ],
      "name": "savingsEvent",
      "type": "event"
    },
    {
      "inputs": [
        {
          "internalType": "string",
          "name": "itemName",
          "type": "string"
        },
        {
          "internalType": "uint256",
          "name": "askingPrice",
          "type": "uint256"
        }
      ],
      "name": "addProduct",
      "outputs": [],
      "stateMutability": "nonpayable",
      "type": "function"
    },
    {
      "inputs": [],
      "name": "getAllProduct",
      "outputs": [
        {
          "components": [
            {
              "internalType": "uint256",
              "name": "id",
              "type": "uint256"
            },
            {
              "internalType": "string",
              "name": "itemName",
              "type": "string"
            },
            {
              "internalType": "address",
              "name": "creator",
              "type": "address"
            },
            {
              "internalType": "address",
              "name": "owner",
              "type": "address"
            },
            {
              "internalType": "uint256",
              "name": "askingPrice",
              "type": "uint256"
            },
            {
              "internalType": "bool",
              "name": "isSold",
              "type": "bool"
            }
          ],
          "internalType": "struct BasicMarketplace.Product[]",
          "name": "",
          "type": "tuple[]"
        }
      ],
      "stateMutability": "view",
      "type": "function"
    },
    {
      "inputs": [
        {
          "internalType": "uint256",
          "name": "productId",
          "type": "uint256"
        }
      ],
      "name": "getProduct",
      "outputs": [
        {
          "components": [
            {
              "internalType": "uint256",
              "name": "id",
              "type": "uint256"
            },
            {
              "internalType": "string",
              "name": "itemName",
              "type": "string"
            },
            {
              "internalType": "address",
              "name": "creator",
              "type": "address"
            },
            {
              "internalType": "address",
              "name": "owner",
              "type": "address"
            },
            {
              "internalType": "uint256",
              "name": "askingPrice",
              "type": "uint256"
            },
            {
              "internalType": "bool",
              "name": "isSold",
              "type": "bool"
            }
          ],
          "internalType": "struct BasicMarketplace.Product",
          "name": "",
          "type": "tuple"
        }
      ],
      "stateMutability": "view",
      "type": "function"
    },
    {
      "inputs": [],
      "name": "numProducts",
      "outputs": [
        {
          "internalType": "uint256",
          "name": "",
          "type": "uint256"
        }
      ],
      "stateMutability": "view",
      "type": "function"
    },
    {
      "inputs": [
        {
          "internalType": "uint256",
          "name": "",
          "type": "uint256"
        }
      ],
      "name": "products",
      "outputs": [
        {
          "internalType": "uint256",
          "name": "id",
          "type": "uint256"
        },
        {
          "internalType": "string",
          "name": "itemName",
          "type": "string"
        },
        {
          "internalType": "address",
          "name": "creator",
          "type": "address"
        },
        {
          "internalType": "address",
          "name": "owner",
          "type": "address"
        },
        {
          "internalType": "uint256",
          "name": "askingPrice",
          "type": "uint256"
        },
        {
          "internalType": "bool",
          "name": "isSold",
          "type": "bool"
        }
      ],
      "stateMutability": "view",
      "type": "function"
    },
    {
      "inputs": [
        {
          "internalType": "uint256",
          "name": "productId",
          "type": "uint256"
        }
      ],
      "name": "sellProduct",
      "outputs": [],
      "stateMutability": "nonpayable",
      "type": "function"
    }
  ],
  "bytecode": "0x608060405234801561001057600080fd5b5060006001819055506113f7806100286000396000f3fe608060405234801561001057600080fd5b50600436106100625760003560e01c8063492deb15146100675780637acc0b2014610083578063ac964f21146100b8578063b15247d9146100d6578063b9db15b4146100f2578063d055a75f14610122575b600080fd5b610081600480360381019061007c9190610a72565b610140565b005b61009d60048036038101906100989190610a72565b6101ba565b6040516100af96959493929190610b9a565b60405180910390f35b6100c06102cb565b6040516100cd9190610c02565b60405180910390f35b6100f060048036038101906100eb9190610d52565b6102d1565b005b61010c60048036038101906101079190610a72565b6105f9565b6040516101199190610eae565b60405180910390f35b61012a610792565b604051610137919061101b565b60405180910390f35b60008060008381526020019081526020016000209050338160030160006101000a81548173ffffffffffffffffffffffffffffffffffffffff021916908373ffffffffffffffffffffffffffffffffffffffff16021790555060018160050160006101000a81548160ff0219169083151502179055505050565b60006020528060005260406000206000915090508060000154908060010180546101e39061106c565b80601f016020809104026020016040519081016040528092919081815260200182805461020f9061106c565b801561025c5780601f106102315761010080835404028352916020019161025c565b820191906000526020600020905b81548152906001019060200180831161023f57829003601f168201915b5050505050908060020160009054906101000a900473ffffffffffffffffffffffffffffffffffffffff16908060030160009054906101000a900473ffffffffffffffffffffffffffffffffffffffff16908060040154908060050160009054906101000a900460ff16905086565b60015481565b600080600060015481526020019081526020016000209050338160020160006101000a81548173ffffffffffffffffffffffffffffffffffffffff021916908373ffffffffffffffffffffffffffffffffffffffff160217905550338160030160006101000a81548173ffffffffffffffffffffffffffffffffffffffff021916908373ffffffffffffffffffffffffffffffffffffffff160217905550818160040181905550828160010190816103899190611249565b5060008160050160006101000a81548160ff0219169083151502179055506040518060c0016040528060015481526020018260010180546103c99061106c565b80601f01602080910402602001604051908101604052809291908181526020018280546103f59061106c565b80156104425780601f1061041757610100808354040283529160200191610442565b820191906000526020600020905b81548152906001019060200180831161042557829003601f168201915b505050505081526020018260020160009054906101000a900473ffffffffffffffffffffffffffffffffffffffff1673ffffffffffffffffffffffffffffffffffffffff1681526020018260030160009054906101000a900473ffffffffffffffffffffffffffffffffffffffff1673ffffffffffffffffffffffffffffffffffffffff168152602001826004015481526020018260050160009054906101000a900460ff16151581525060008060015481526020019081526020016000206000820151816000015560208201518160010190816105209190611249565b5060408201518160020160006101000a81548173ffffffffffffffffffffffffffffffffffffffff021916908373ffffffffffffffffffffffffffffffffffffffff16021790555060608201518160030160006101000a81548173ffffffffffffffffffffffffffffffffffffffff021916908373ffffffffffffffffffffffffffffffffffffffff1602179055506080820151816004015560a08201518160050160006101000a81548160ff021916908315150217905550905050600160008154809291906105ef9061134a565b9190505550505050565b6106016109c4565b6000808381526020019081526020016000206040518060c0016040529081600082015481526020016001820180546106389061106c565b80601f01602080910402602001604051908101604052809291908181526020018280546106649061106c565b80156106b15780601f10610686576101008083540402835291602001916106b1565b820191906000526020600020905b81548152906001019060200180831161069457829003601f168201915b505050505081526020016002820160009054906101000a900473ffffffffffffffffffffffffffffffffffffffff1673ffffffffffffffffffffffffffffffffffffffff1673ffffffffffffffffffffffffffffffffffffffff1681526020016003820160009054906101000a900473ffffffffffffffffffffffffffffffffffffffff1673ffffffffffffffffffffffffffffffffffffffff1673ffffffffffffffffffffffffffffffffffffffff168152602001600482015481526020016005820160009054906101000a900460ff1615151515815250509050919050565b6060600060015467ffffffffffffffff8111156107b2576107b1610c27565b5b6040519080825280602002602001820160405280156107eb57816020015b6107d86109c4565b8152602001906001900390816107d05790505b50905060005b6001548110156109bc5760008060008381526020019081526020016000209050806040518060c0016040529081600082015481526020016001820180546108379061106c565b80601f01602080910402602001604051908101604052809291908181526020018280546108639061106c565b80156108b05780601f10610885576101008083540402835291602001916108b0565b820191906000526020600020905b81548152906001019060200180831161089357829003601f168201915b505050505081526020016002820160009054906101000a900473ffffffffffffffffffffffffffffffffffffffff1673ffffffffffffffffffffffffffffffffffffffff1673ffffffffffffffffffffffffffffffffffffffff1681526020016003820160009054906101000a900473ffffffffffffffffffffffffffffffffffffffff1673ffffffffffffffffffffffffffffffffffffffff1673ffffffffffffffffffffffffffffffffffffffff168152602001600482015481526020016005820160009054906101000a900460ff16151515158152505083838151811061099d5761099c611392565b5b60200260200101819052505080806109b49061134a565b9150506107f1565b508091505090565b6040518060c001604052806000815260200160608152602001600073ffffffffffffffffffffffffffffffffffffffff168152602001600073ffffffffffffffffffffffffffffffffffffffff168152602001600081526020016000151581525090565b6000604051905090565b600080fd5b600080fd5b6000819050919050565b610a4f81610a3c565b8114610a5a57600080fd5b50565b600081359050610a6c81610a46565b92915050565b600060208284031215610a8857610a87610a32565b5b6000610a9684828501610a5d565b91505092915050565b610aa881610a3c565b82525050565b600081519050919050565b600082825260208201905092915050565b60005b83811015610ae8578082015181840152602081019050610acd565b60008484015250505050565b6000601f19601f8301169050919050565b6000610b1082610aae565b610b1a8185610ab9565b9350610b2a818560208601610aca565b610b3381610af4565b840191505092915050565b600073ffffffffffffffffffffffffffffffffffffffff82169050919050565b6000610b6982610b3e565b9050919050565b610b7981610b5e565b82525050565b60008115159050919050565b610b9481610b7f565b82525050565b600060c082019050610baf6000830189610a9f565b8181036020830152610bc18188610b05565b9050610bd06040830187610b70565b610bdd6060830186610b70565b610bea6080830185610a9f565b610bf760a0830184610b8b565b979650505050505050565b6000602082019050610c176000830184610a9f565b92915050565b600080fd5b600080fd5b7f4e487b7100000000000000000000000000000000000000000000000000000000600052604160045260246000fd5b610c5f82610af4565b810181811067ffffffffffffffff82111715610c7e57610c7d610c27565b5b80604052505050565b6000610c91610a28565b9050610c9d8282610c56565b919050565b600067ffffffffffffffff821115610cbd57610cbc610c27565b5b610cc682610af4565b9050602081019050919050565b82818337600083830152505050565b6000610cf5610cf084610ca2565b610c87565b905082815260208101848484011115610d1157610d10610c22565b5b610d1c848285610cd3565b509392505050565b600082601f830112610d3957610d38610c1d565b5b8135610d49848260208601610ce2565b91505092915050565b60008060408385031215610d6957610d68610a32565b5b600083013567ffffffffffffffff811115610d8757610d86610a37565b5b610d9385828601610d24565b9250506020610da485828601610a5d565b9150509250929050565b610db781610a3c565b82525050565b600082825260208201905092915050565b6000610dd982610aae565b610de38185610dbd565b9350610df3818560208601610aca565b610dfc81610af4565b840191505092915050565b610e1081610b5e565b82525050565b610e1f81610b7f565b82525050565b600060c083016000830151610e3d6000860182610dae565b5060208301518482036020860152610e558282610dce565b9150506040830151610e6a6040860182610e07565b506060830151610e7d6060860182610e07565b506080830151610e906080860182610dae565b5060a0830151610ea360a0860182610e16565b508091505092915050565b60006020820190508181036000830152610ec88184610e25565b905092915050565b600081519050919050565b600082825260208201905092915050565b6000819050602082019050919050565b600060c083016000830151610f146000860182610dae565b5060208301518482036020860152610f2c8282610dce565b9150506040830151610f416040860182610e07565b506060830151610f546060860182610e07565b506080830151610f676080860182610dae565b5060a0830151610f7a60a0860182610e16565b508091505092915050565b6000610f918383610efc565b905092915050565b6000602082019050919050565b6000610fb182610ed0565b610fbb8185610edb565b935083602082028501610fcd85610eec565b8060005b858110156110095784840389528151610fea8582610f85565b9450610ff583610f99565b925060208a01995050600181019050610fd1565b50829750879550505050505092915050565b600060208201905081810360008301526110358184610fa6565b905092915050565b7f4e487b7100000000000000000000000000000000000000000000000000000000600052602260045260246000fd5b6000600282049050600182168061108457607f821691505b6020821081036110975761109661103d565b5b50919050565b60008190508160005260206000209050919050565b60006020601f8301049050919050565b600082821b905092915050565b6000600883026110ff7fffffffffffffffffffffffffffffffffffffffffffffffffffffffffffffffff826110c2565b61110986836110c2565b95508019841693508086168417925050509392505050565b6000819050919050565b600061114661114161113c84610a3c565b611121565b610a3c565b9050919050565b6000819050919050565b6111608361112b565b61117461116c8261114d565b8484546110cf565b825550505050565b600090565b61118961117c565b611194818484611157565b505050565b5b818110156111b8576111ad600082611181565b60018101905061119a565b5050565b601f8211156111fd576111ce8161109d565b6111d7846110b2565b810160208510156111e6578190505b6111fa6111f2856110b2565b830182611199565b50505b505050565b600082821c905092915050565b600061122060001984600802611202565b1980831691505092915050565b6000611239838361120f565b9150826002028217905092915050565b61125282610aae565b67ffffffffffffffff81111561126b5761126a610c27565b5b611275825461106c565b6112808282856111bc565b600060209050601f8311600181146112b357600084156112a1578287015190505b6112ab858261122d565b865550611313565b601f1984166112c18661109d565b60005b828110156112e9578489015182556001820191506020850194506020810190506112c4565b868310156113065784890151611302601f89168261120f565b8355505b6001600288020188555050505b505050505050565b7f4e487b7100000000000000000000000000000000000000000000000000000000600052601160045260246000fd5b600061135582610a3c565b91507fffffffffffffffffffffffffffffffffffffffffffffffffffffffffffffffff82036113875761138661131b565b5b600182019050919050565b7f4e487b7100000000000000000000000000000000000000000000000000000000600052603260045260246000fdfea2646970667358221220326f6b77375249ac840b2c136a026ccb5c6805ed73357cb6d20e1c1b0551a26464736f6c63430008120033",
  "linkReferences": {},
  "deployedLinkReferences": {}
}