{
  "contractName": "BasicMarketplace",
  "abi": [
    {
      "inputs": [],
      "stateMutability": "nonpayable",
      "type": "constructor"
    },
    {
      "anonymous": false,
      "inputs": [
        {
          "indexed": true,
          "internalType": "uint256",
          "name": "_productId",
          "type": "uint256"
        }
      ],
      "name": "savingsEvent",
      "type": "event"
    },
    {
      "inputs": [],
      "name": "numProducts",
      "outputs": [
        {
          "internalType": "uint256",
          "name": "",
          "type": "uint256"
        }
      ],
      "stateMutability": "view",
      "type": "function",
      "constant": true
    },
    {
      "inputs": [
        {
          "internalType": "uint256",
          "name": "",
          "type": "uint256"
        }
      ],
      "name": "products",
      "outputs": [
        {
          "internalType": "uint256",
          "name": "id",
          "type": "uint256"
        },
        {
          "internalType": "string",
          "name": "itemName",
          "type": "string"
        },
        {
          "internalType": "address",
          "name": "creator",
          "type": "address"
        },
        {
          "internalType": "address",
          "name": "owner",
          "type": "address"
        },
        {
          "internalType": "uint256",
          "name": "askingPrice",
          "type": "uint256"
        },
        {
          "internalType": "bool",
          "name": "isSold",
          "type": "bool"
        }
      ],
      "stateMutability": "view",
      "type": "function",
      "constant": true
    },
    {
      "inputs": [
        {
          "internalType": "string",
          "name": "itemName",
          "type": "string"
        },
        {
          "internalType": "uint256",
          "name": "askingPrice",
          "type": "uint256"
        }
      ],
      "name": "addProduct",
      "outputs": [
        {
          "internalType": "string",
          "name": "",
          "type": "string"
        }
      ],
      "stateMutability": "nonpayable",
      "type": "function"
    },
    {
      "inputs": [
        {
          "internalType": "uint256",
          "name": "productId",
          "type": "uint256"
        }
      ],
      "name": "getProduct",
      "outputs": [
        {
          "components": [
            {
              "internalType": "uint256",
              "name": "id",
              "type": "uint256"
            },
            {
              "internalType": "string",
              "name": "itemName",
              "type": "string"
            },
            {
              "internalType": "address",
              "name": "creator",
              "type": "address"
            },
            {
              "internalType": "address",
              "name": "owner",
              "type": "address"
            },
            {
              "internalType": "uint256",
              "name": "askingPrice",
              "type": "uint256"
            },
            {
              "internalType": "bool",
              "name": "isSold",
              "type": "bool"
            }
          ],
          "internalType": "struct BasicMarketplace.Product",
          "name": "",
          "type": "tuple"
        }
      ],
      "stateMutability": "view",
      "type": "function",
      "constant": true
    },
    {
      "inputs": [],
      "name": "getAllProduct",
      "outputs": [
        {
          "components": [
            {
              "internalType": "uint256",
              "name": "id",
              "type": "uint256"
            },
            {
              "internalType": "string",
              "name": "itemName",
              "type": "string"
            },
            {
              "internalType": "address",
              "name": "creator",
              "type": "address"
            },
            {
              "internalType": "address",
              "name": "owner",
              "type": "address"
            },
            {
              "internalType": "uint256",
              "name": "askingPrice",
              "type": "uint256"
            },
            {
              "internalType": "bool",
              "name": "isSold",
              "type": "bool"
            }
          ],
          "internalType": "struct BasicMarketplace.Product[]",
          "name": "",
          "type": "tuple[]"
        }
      ],
      "stateMutability": "view",
      "type": "function",
      "constant": true
    },
    {
      "inputs": [
        {
          "internalType": "uint256",
          "name": "productId",
          "type": "uint256"
        }
      ],
      "name": "sellProduct",
      "outputs": [],
      "stateMutability": "nonpayable",
      "type": "function"
    }
  ],
  "bytecode": "0x60806040523480156200001157600080fd5b50600060015560408051808201909152600981526850726f64756374203160b81b602082015262000045906103e86200004c565b50620003f9565b600180546000908152602081905260409020600281018054336001600160a01b0319918216811790925560038301805490911690911790556004810183905560609181016200009c858262000305565b5060058101805460ff191690556040805160c0810190915260018054825282018054602083019190620000cf9062000276565b80601f0160208091040260200160405190810160405280929190818152602001828054620000fd9062000276565b80156200014e5780601f1062000122576101008083540402835291602001916200014e565b820191906000526020600020905b8154815290600101906020018083116200013057829003601f168201915b505050918352505060028301546001600160a01b03908116602080840191909152600385015490911660408084019190915260048501546060840152600585015460ff1615156080909301929092526001805460009081528083529290922083518155908301519091820190620001c6908262000305565b5060408201516002820180546001600160a01b039283166001600160a01b03199182161790915560608401516003840180549190931691161790556080820151600482015560a0909101516005909101805491151560ff19909216919091179055600180549060006200023983620003d1565b91905055506040518060a00160405280607f815260200162001106607f9139949350505050565b634e487b7160e01b600052604160045260246000fd5b600181811c908216806200028b57607f821691505b602082108103620002ac57634e487b7160e01b600052602260045260246000fd5b50919050565b601f8211156200030057600081815260208120601f850160051c81016020861015620002db5750805b601f850160051c820191505b81811015620002fc57828155600101620002e7565b5050505b505050565b81516001600160401b0381111562000321576200032162000260565b620003398162000332845462000276565b84620002b2565b602080601f831160018114620003715760008415620003585750858301515b600019600386901b1c1916600185901b178555620002fc565b600085815260208120601f198616915b82811015620003a25788860151825594840194600190910190840162000381565b5085821015620003c15787850151600019600388901b60f8161c191681555b5050505050600190811b01905550565b600060018201620003f257634e487b7160e01b600052601160045260246000fd5b5060010190565b610cfd80620004096000396000f3fe608060405234801561001057600080fd5b50600436106100625760003560e01c8063492deb15146100675780637acc0b20146100a9578063ac964f21146100d7578063b15247d9146100ee578063b9db15b41461010e578063d055a75f1461012e575b600080fd5b6100a761007536600461082f565b60009081526020819052604090206003810180546001600160a01b03191633179055600501805460ff19166001179055565b005b6100bc6100b736600461082f565b610143565b6040516100ce9695949392919061088e565b60405180910390f35b6100e060015481565b6040519081526020016100ce565b6101016100fc3660046108ed565b610212565b6040516100ce91906109a2565b61012161011c36600461082f565b610417565b6040516100ce9190610a1f565b610136610512565b6040516100ce9190610a32565b6000602081905290815260409020805460018201805491929161016590610a94565b80601f016020809104026020016040519081016040528092919081815260200182805461019190610a94565b80156101de5780601f106101b3576101008083540402835291602001916101de565b820191906000526020600020905b8154815290600101906020018083116101c157829003601f168201915b5050505060028301546003840154600485015460059095015493946001600160a01b03928316949290911692509060ff1686565b600180546000908152602081905260409020600281018054336001600160a01b0319918216811790925560038301805490911690911790556004810183905560609181016102608582610b1d565b5060058101805460ff191690556040805160c081019091526001805482528201805460208301919061029190610a94565b80601f01602080910402602001604051908101604052809291908181526020018280546102bd90610a94565b801561030a5780601f106102df5761010080835404028352916020019161030a565b820191906000526020600020905b8154815290600101906020018083116102ed57829003601f168201915b505050918352505060028301546001600160a01b03908116602080840191909152600385015490911660408084019190915260048501546060840152600585015460ff16151560809093019290925260018054600090815280835292909220835181559083015190918201906103809082610b1d565b5060408201516002820180546001600160a01b039283166001600160a01b03199182161790915560608401516003840180549190931691161790556080820151600482015560a0909101516005909101805491151560ff19909216919091179055600180549060006103f183610bdd565b91905055506040518060a00160405280607f8152602001610c49607f9139949350505050565b61041f6107e5565b60008281526020818152604091829020825160c0810190935280548352600181018054919284019161045090610a94565b80601f016020809104026020016040519081016040528092919081815260200182805461047c90610a94565b80156104c95780601f1061049e576101008083540402835291602001916104c9565b820191906000526020600020905b8154815290600101906020018083116104ac57829003601f168201915b505050918352505060028201546001600160a01b03908116602083015260038301541660408201526004820154606082015260059091015460ff16151560809091015292915050565b6060600060015467ffffffffffffffff811115610531576105316108d7565b60405190808252806020026020018201604052801561056a57816020015b6105576107e5565b81526020019060019003908161054f5790505b50905060005b6001548110156106a55760008060008381526020019081526020016000209050806040518060c0016040529081600082015481526020016001820180546105b690610a94565b80601f01602080910402602001604051908101604052809291908181526020018280546105e290610a94565b801561062f5780601f106106045761010080835404028352916020019161062f565b820191906000526020600020905b81548152906001019060200180831161061257829003601f168201915b505050918352505060028201546001600160a01b03908116602083015260038301541660408201526004820154606082015260059091015460ff161515608090910152835184908490811061068657610686610c04565b602002602001018190525050808061069d90610bdd565b915050610570565b506106e46040518060400160405280601981526020017f3d3d3d3d3d20676574416c6c50726f64756374203d3d3d3d3d00000000000000815250610734565b61072f6040518060400160405280600b81526020016a0383937b22634b9ba101d160ad1b8152508260008151811061071e5761071e610c04565b60200260200101516020015161077a565b919050565b6107778160405160240161074891906109a2565b60408051601f198184030181529190526020810180516001600160e01b031663104c13eb60e21b1790526107c3565b50565b6107bf8282604051602401610790929190610c1a565b60408051601f198184030181529190526020810180516001600160e01b0316634b5c427760e01b1790526107c3565b5050565b80516a636f6e736f6c652e6c6f6790602083016000808383865afa5050505050565b6040518060c00160405280600081526020016060815260200160006001600160a01b0316815260200160006001600160a01b03168152602001600081526020016000151581525090565b60006020828403121561084157600080fd5b5035919050565b6000815180845260005b8181101561086e57602081850181015186830182015201610852565b506000602082860101526020601f19601f83011685010191505092915050565b86815260c0602082015260006108a760c0830188610848565b6001600160a01b0396871660408401529490951660608201526080810192909252151560a0909101529392505050565b634e487b7160e01b600052604160045260246000fd5b6000806040838503121561090057600080fd5b823567ffffffffffffffff8082111561091857600080fd5b818501915085601f83011261092c57600080fd5b81358181111561093e5761093e6108d7565b604051601f8201601f19908116603f01168101908382118183101715610966576109666108d7565b8160405282815288602084870101111561097f57600080fd5b826020860160208301376000602093820184015298969091013596505050505050565b6020815260006109b56020830184610848565b9392505050565b805182526000602082015160c060208501526109db60c0850182610848565b9050604083015160018060a01b03808216604087015280606086015116606087015250506080830151608085015260a0830151151560a08501528091505092915050565b6020815260006109b560208301846109bc565b6000602080830181845280855180835260408601915060408160051b870101925083870160005b82811015610a8757603f19888603018452610a758583516109bc565b94509285019290850190600101610a59565b5092979650505050505050565b600181811c90821680610aa857607f821691505b602082108103610ac857634e487b7160e01b600052602260045260246000fd5b50919050565b601f821115610b1857600081815260208120601f850160051c81016020861015610af55750805b601f850160051c820191505b81811015610b1457828155600101610b01565b5050505b505050565b815167ffffffffffffffff811115610b3757610b376108d7565b610b4b81610b458454610a94565b84610ace565b602080601f831160018114610b805760008415610b685750858301515b600019600386901b1c1916600185901b178555610b14565b600085815260208120601f198616915b82811015610baf57888601518255948401946001909101908401610b90565b5085821015610bcd5787850151600019600388901b60f8161c191681555b5050505050600190811b01905550565b600060018201610bfd57634e487b7160e01b600052601160045260246000fd5b5060010190565b634e487b7160e01b600052603260045260246000fd5b604081526000610c2d6040830185610848565b8281036020840152610c3f8185610848565b9594505050505056fe7b50726f6475637449643a226e756d50726f6475637473222c4974656d4e616d653a70726f647563742e6974656d4e616d652c43726561746f723a70726f647563742e63726561746f722c4f776e65723a70726f647563742e6f776e65722c41736b696e6750726963653a70726f647563742e61736b696e6750726963657da264697066735822122072a553e4beac2071e894be5681ee8c78a44471cf13e1e44dbf6a7a6a35339d9664736f6c634300081200337b50726f6475637449643a226e756d50726f6475637473222c4974656d4e616d653a70726f647563742e6974656d4e616d652c43726561746f723a70726f647563742e63726561746f722c4f776e65723a70726f647563742e6f776e65722c41736b696e6750726963653a70726f647563742e61736b696e6750726963657d",
  "immutableReferences": {},
  "source": "// SPDX-License-Identifier: MIT \r\npragma solidity ^0.8.18;\r\nimport \"truffle/console.sol\";\r\n\r\ncontract BasicMarketplace {\r\n    \r\n    //first create a logic structure that will defined our product in MarketPlace\r\n    struct Product {\r\n        uint256 id;\r\n        string itemName;\r\n        address creator; //when a user create the Item we will capture address and store here.\r\n        address owner;\r\n        uint256 askingPrice;\r\n        bool isSold;\r\n    }\r\n\r\n    //Another thing Smart Contract has to do is keep track of the mapping of the products\r\n    //NOTE: this mapping will hold all of the products within the marketplace. \r\n    mapping(uint256=> Product) public products;\r\n\r\n    uint256 public numProducts; //this will represent how many products we have. This variable\r\n                                //we created is just a way for us to give a unique id to a \r\n                                //product. Once we create a new product, we will increment this\r\n                                //variable here, that we are keeping track of how many products\r\n                                //we have, and we are also assigning a new unique id to any new\r\n                                //products that we add.\r\n            \r\n    //define an Event to save products.\r\n    event savingsEvent(uint256 indexed _productId);\r\n    \r\n    constructor() {\r\n        numProducts=0;    \r\n\r\n        ///add a single product at the time when this SmartContract is deployed\r\n        addProduct(\"Product 1\", 1000);\r\n    }\r\n\r\n\r\n    //this functio nwill allow us to add a new Product to the marketplace.\r\n    function addProduct(string memory itemName, uint256 askingPrice) public returns(string memory) {\r\n        Product storage product = products[numProducts]; //get the product Instance.\r\n\r\n        //\r\n        product.creator = msg.sender;\r\n        product.owner = msg.sender; //NOTE: Initially both product.creator & product.owner are same\r\n        product.askingPrice = askingPrice;\r\n        product.itemName = itemName;\r\n        product.isSold = false;\r\n\r\n        //So once we have the above Instance assigned, next we will do is we will add it to the\r\n        //products mapping that we are keeping track of. \r\n        products[numProducts] = Product(\r\n            numProducts,\r\n            product.itemName,\r\n            product.creator,\r\n            product.owner,\r\n            product.askingPrice,\r\n            product.isSold\r\n        );\r\n\r\n        //\r\n        numProducts++;\r\n\r\n        //return the added product object\r\n        return \"{ProductId:\\\"numProducts\\\",ItemName:product.itemName,Creator:product.creator,Owner:product.owner,AskingPrice:product.askingPrice}\";\r\n    }\r\n\r\n    //function to return a Single Product.\r\n    function getProduct(uint256 productId) public view returns(Product memory) {\r\n        return products[productId];\r\n    }\r\n\r\n    //function to return all of the Products in the MarketPlace.\r\n    function getAllProduct() public view returns(Product[] memory) {\r\n        Product[] memory prodList = new Product[](numProducts);\r\n\r\n        for(uint256 i =0; i< numProducts; i++) {\r\n            Product storage product = products[i];\r\n            prodList[i]=product;\r\n        }\r\n\r\n        console.log(\"===== getAllProduct =====\");\r\n        console.log(\"prodList : \", prodList[0].itemName);\r\n        //\r\n        return prodList;\r\n    }\r\n\r\n    //function to sell a Product , i.e. to change an Ownership of the product clicked on.\r\n    function sellProduct(uint256 productId) public {\r\n        Product storage product = products[productId];\r\n\r\n        //\r\n        product.owner = msg.sender;\r\n        product.isSold = true;\r\n    }\r\n\r\n}",
  "sourcePath": "C:\\Users\\saurav.savarn\\workspace\\workspace_blockchain\\app_marketplace\\contracts\\BasicMarketplace.sol",
  "compiler": {
    "name": "solc",
    "version": "0.8.18+commit.87f61d96.Emscripten.clang"
  },
  "schemaVersion": "3.4.14",
  "updatedAt": "2023-07-03T08:33:15.661Z",
  "networkType": "ethereum",
  "devdoc": {
    "kind": "dev",
    "methods": {},
    "version": 1
  },
  "userdoc": {
    "kind": "user",
    "methods": {},
    "version": 1
  }
}